:1000000010C01EC01CC01BC01AC019C018C017C029
:1000100016C015C014C013C012C011C010C00FC04C
:100020000EC011241FBECFEDCDBF20E0A0E6B0E092
:1000300001C01D92A136B207E1F713D034C0E0CF62
:100040001F920F920FB60F9211248F938091600030
:100050008F5F809360008F910F900FBE0F901F9065
:10006000189584E08ABB8EB583608EBD85EA9EE0DC
:100070009BBD8ABD8BB780648BBF85B7826085BF0F
:100080007894599B09C080916000853028F01092C7
:1000900060001DBC1CBC599A8BB186958170880F7D
:0A00A000880F8BBBEECFF894FFCF62
:00000001FF
